:020000040002F8
:1070000028570020C1730200C9730200CB7302002D
:10701000CD730200CF730200D173020000000000A4
:10702000000000000000000000000000D373020018
:10703000D573020000000000D7730200D97302006C
:107040001D760200DB7302005D780200DB73020034
:10705000DB730200DB73020079750200DB73020050
:10706000DB730200DB730200DB730200DB730200E0
:10707000DB730200DB730200DB730200DB730200D0
:10708000DB73020075760200DB730200DB73020023
:10709000DB730200DB73020085760200DB73020003
:1070A000DB730200DB730200DB730200DB730200A0
:1070B000DB730200DB730200000000000000000030
:1070C000DB730200DB730200DB730200DB73020080
:1070D000DB730200DB730200DB730200DB73020070
:1070E000DB730200DB730200DB73020000000000B0
:1070F00000000000DB73020000000000DB730200F0
:10710000000000000000000000000000000000007F
:10711000000000000000000000000000000000006F
:10712000000000000000000000000000000000005F
:10713000000000000000000000000000000000004F
:10714000000000000000000000000000000000003F
:10715000000000000000000000000000000000002F
:10716000000000000000000000000000000000001F
:10717000000000000000000000000000000000000F
:1071800000000000000000000000000000000000FF
:1071900000000000000000000000000000000000EF
:1071A00000000000000000000000000000000000DF
:1071B00000000000000000000000000000000000CF
:1071C00000000000000000000000000000000000BF
:1071D00000000000000000000000000000000000AF
:1071E000000000000000000000000000000000009F
:1071F000000000000000000000000000000000008F
:10720000DFF80CD000F07AF9004800476DB10200B9
:107210002857002030B450E8012F93B2C48923448A
:107220008489A34228BF1B1B0489A34202BFBFF36A
:107230002F8F002007E0C3EA020340E80134002C4E
:10724000E9D14FF001000A6030BC704750E8012FCF
:10725000C2EA024240E801210029F7D1704730B468
:1072600050E8022F1FFAA2F3C488A34202BFBFF363
:107270002F8F00200DE0C48923448489A34228BFB6
:107280001B1BC2EA034340E80234002CE8D14FF054
:1072900001000A6030BC704750E8022FC2EA224267
:1072A00040E802210029F7D17047034653E8022F36
:1072B000D988B2EB324F4FF0000017BF92B241EACB
:1072C000014142EA014104E05A68B2EB324F08BF83
:1072D000012043E80212002AE8D1704730B4044686
:1072E00054E8000F0D4644E80053002BF8D1156018
:1072F00030BC704730B4044654E8000F40EA010542
:1073000044E80053002BF7D1156030BC704730B40F
:10731000044654E8000F00EA010544E80053002B3E
:10732000F7D1156030BC704730B4044654E8000F04
:1073300080EA010544E80053002BF7D1156030BC0A
:10734000704730B4044654E8000F00EB010544E8F0
:107350000053002BF7D1156030BC704730B40446A1
:1073600054E8000FA0EB010544E80053002BF7D1CF
:10737000156030BC704770B404464FF0000054E80C
:10738000006F0D68AE4207BF44E80023012044E8C7
:1073900000630E60002B1CBF0020F0E770BC70473C
:1073A00030B4044654E8000F88422CBF451A054605
:1073B00044E80053002BF5D1156030BC7047000045
:1073C0000648804706480047FEE7FEE7FEE7FEE77F
:1073D000FEE7FEE7FEE7FEE7FEE7FEE7897602004E
:1073E000017202002DE9F05F0546002092469B469F
:1073F00088460646814640241BE0284641464746CB
:10740000224600F06BF853465A46C01A914110D3F9
:1074100011461846224600F016F82D1A67EB0108AF
:107420004F4622460120002100F00DF817EB00091D
:107430004E41201EA4F10104DFDC484631462A46B5
:107440004346BDE8F09F202A04DB203A00FA02F10F
:10745000002070479140C2F1200320FA03F3194342
:107460009040704700487047D013030040EA010382
:107470009B0703D009E008C9121F08C0042AFAD2EA
:1074800003E011F8013B00F8013B521EF9D27047AE
:10749000D2B201E000F8012B491EFBD27047002256
:1074A000F6E710B513460A4604461946FFF7F0FF03
:1074B000204610BD421C10F8011B0029FBD1801A88
:1074C000704730B504460020034600E05B1C934241
:1074D00003D2E05CCD5C401BF8D030BD202A04DB39
:1074E000203A21FA02F00021704721FA02F3D0403D
:1074F000C2F120029140084319467047064C074DDF
:1075000006E0E06840F0010394E807009847103473
:10751000AC42F6D3FFF778FE6C2603008C260300FE
:1075200070B58C1810F8015B15F0070301D110F845
:10753000013B2A1106D110F8012B03E010F8016B72
:1075400001F8016B5B1EF9D12B0705D40023521EF5
:107550000DD401F8013BFAE710F8013BCB1A921C5D
:1075600003E013F8015B01F8015B521EF9D5A1425B
:10757000D8D3002070BD00002DE9FC410025DFF8C4
:10758000948000954FF4807601242F460195304673
:1075900004F074FF38B1D8F80403204203D0304619
:1075A00004F062FF2543361D64007F1CB6B2082F2D
:1075B000EDD34FF4BE74204604F060FF48B120467E
:1075C00004F052FF45F000456A460221002004F015
:1075D000B3FE15F0FF0F16D0012600242E420ED068
:1075E00008EB8401D1F81005D1F81015C0F305207F
:1075F000094AC1F3014152F8242002B190477600B4
:10760000641C082CEAD3002D02DA684607F04AFB16
:10761000BDE8FC8100600040542E002070B54FF49E
:107620008076304604F00EFA114CB50560B1304654
:1076300004F00FFA0120C5F80803607920B9012091
:1076400060712168002088474FF48276304604F04C
:10765000F9F900280AD0304604F0FBF90220C5F8F9
:1076600008032168BDE870400120084770BD000094
:107670009C24002002490248091F09680068084745
:10768000F024002005F07ABC70B54FF08052012440
:10769000D2E94C100023082906D1CD06C5F80C31DB
:1076A000C5F810315E4D2B60082955D15D4D2D6810
:1076B0005D4E35605B4D2D1D2D68361D3560594D75
:1076C00008352D68361D3560564D0C352D68361D34
:1076D0003560544D10352D68361D3560514D1435CB
:1076E0002D68361D35604F4D18352D684E4E2036AD
:1076F00035604C4D1C352D68361D3560494D2035A3
:107700002D68361D3560474D24352D68361D356092
:10771000444D28352D68361D3560424D2C352D6879
:10772000361D35603F4D30352D683F4E4036356053
:107730003C4D34352D68361D35603A4D38352D6851
:10774000361D3560374D3C352D68361D3560354D5D
:1077500040352D68361D3560082904D1050002D159
:10776000334E324D3560082904D1050002D1314E27
:10777000FB253560082908D1050006D192F858622A
:107780002D4A156866F303051560082904D1020027
:1077900002D12A4D8A012A60082906D128480168A9
:1077A000C90702D06FF0010101602648016841F469
:1077B00070010160BFF34F8FBFF36F8F4FF0102147
:1077C000D1F80002002803DBD1F80402002822DAF5
:1077D0001D4A14601D480468002CFCD01224C1F816
:1077E00000420568002DFCD0C1F804420168002960
:1077F000FCD0136001680029FCD0BFF34F8F114803
:107800007C380168124A01F4E06111430160BFF362
:107810004F8F00BFFDE710490E48086070BD0000A3
:10782000380500400404001020C5004048810300D2
:107830008C56004018F50040E40E0040409602408F
:107840000004004088ED00E004E5014000E4014050
:107850000400FA050090D003B0250020014800681C
:1078600000470000A424002002E008C8121F08C13D
:10787000002AFAD170477047002001E001C1121FB1
:10788000002AFBD1704700000121202803DA814043
:107890000548014003E0402802DA2038814009B160
:1078A0000120704700207047FC06FFBD10B560B195
:1078B00059B102780B785208B2EB530F05D106226A
:1078C000401C491CFFF7FDFD08B1002010BD012040
:1078D00010BD800701D00020704701207047C368A9
:1078E0008B4206D811440069491E814201D801200B
:1078F00070470020704790F82400012801D01F2015
:107900007047EE20704710B501220221002001F0DF
:10791000C7F908B1072810D107220221012001F080
:10792000BFF908B1072808D100210A22084601F052
:10793000B7F908B1072800D1002010BD10B560B11B
:107940000B480C49401AC008032101EB00400AA172
:1079500004F096FF07F036F903E003210A4800F02F
:1079600078FC002803D0BDE8104000F0D5B810BD69
:10797000442703009C260300457261736520626FF3
:107980006E64732100000000E825002070B58CB003
:1079900015460E4600236C46C3F10F01415CE154CD
:1079A0005B1C102BF8D30D2104F11000FFF777FDBD
:1079B0000020C0F10F02315C2244401C11740328E6
:1079C000F7D3684646DF0020C0F10F01214491F84B
:1079D00020102954401C0328F6D30CB070BD02209F
:1079E00001F060B80149C97800F0F6BD68240020B4
:1079F00070B50024064D06E06868012110F83400D7
:107A000005F0E2FB641C28788442F5D3002070BDA9
:107A1000B0240020F8B516460C4605460A2A01D2C5
:107A20000720F8BD05F0C8FC18B905F089FC00284E
:107A3000F7D1134F202113487D603C70BE60FFF7E3
:107A40002EFD0020C7E904000F4E0DE005EBC40039
:107A50003168009181788DF8011000780B4A6946F1
:107A600005F0FEFB0028DCD1641EE4B2EED2BDE8D6
:107A7000F84005480021064A001D00F05FB80000EC
:107A8000B0240020302F002034100300EDA40200A9
:107A9000B994020072B604F093FF00BF04F0D4FD65
:107AA0000028FBD111481249401AC408012000EBFC
:107AB000044010A104F0E4FE11480068C00700D0A3
:107AC00000BE022000EB04400EA104F0D9FEBFF37B
:107AD0004F8F0B48E43801680E4A01F4E06111430E
:107AE0000160BFF34F8F00BFFDE700004427030094
:107AF0009C260300466174616C206572726F72008F
:107B0000F0ED00E053797374656D207265736574F0
:107B1000000000000400FA050EB500210091CDE937
:107B200001106A4644F20100FFF7B4FF0EBD0000E9
:107B3000014801F028BD0000D02400203AB10068BF
:107B40000129426100D00021016100207047072017
:107B50007047000038B51148082358224168009149
:107B60000F49006803F019FD002815D10D4A694638
:107B70000D4801F00DFD04000ED101210A4801F06D
:107B800082FD0123094A1946074801F0D4FC064941
:107B9000012008390870204638BD00003C10030061
:107BA000602F0020FDF20200D0240020FFFF7F00A4
:107BB00070B50446007F0D4608B1002070BDA2617B
:107BC00002F07AFC401941F10001C4E90201206988
:107BD00000B125612146BDE87040002008F0A0BB3F
:107BE000014600200877012008F09ABB30B5EFF37A
:107BF000108172B60D4A9468012324B103700029E4
:107C000000D162B630BD93604FF0E023D3F88051CD
:107C1000074C25401560C3F88041D3F88441546077
:107C20005A17C3F8842100220270E8E7B82F002019
:107C3000FC06FFBD0B498A68002A11D000280FD12D
:107C4000EFF3108072B60B684FF0E022C2F80031FB
:107C50004B68C2F8043100228A60002800D162B665
:107C600070470000B82F002070B5054608680C4624
:107C7000411C04D004F0D1FB206804F031FB6068A3
:107C8000411C02D0002104F019FB2968A069C1F849
:107C90002405607D227D29681043C1F86C05D4E974
:107CA00000122868C0F81425C0F80C15207D0128A2
:107CB00014D1A068411C02D0002104F0FFFAE06852
:107CC000411C04D004F0A9FBE06804F009FBD4E9EE
:107CD00002122868C0F80825C0F8101570BD70B5EC
:107CE000054608680C46411C04D004F0A0FB20683F
:107CF00004F000FB6068411C02D0002104F0E7FAA8
:107D00002968A069C1F82405607D217D2A6808439F
:107D1000C2F86C05D4E900122868C0F80C15C0F848
:107D20001425207D012814D1A068411C02D0002117
:107D300004F0CDFAE068411C04D004F078FBE06860
:107D400004F0D8FAD4E902122868C0F80825C0F86F
:107D5000101570BD03F0D6B82DE9F04781460588AF
:107D60004A484FF000088AB001784246284600F0A1
:107D70004BFC99F80500400701D4002176E005F599
:107D80008077B8B205AB0122072106F0FFF80400A6
:107D90003F48404A4FF00101A0EB02004FEAD000FB
:107DA00001EB00460AD0204605F09AF9024630461B
:107DB0002B46394904F06FFD214629E0284602F0A0
:107DC00035FE4FF6FF71044688422BD18A4606984D
:107DD00002F096FD0446504510D00146284602F0B8
:107DE00005FE2846FFF7FEFDE0B9284607F03CFDFA
:107DF0002846FFF7F7FD0028BFD013E006F09CFAF5
:107E00000446504508D1304624A104F039FD042130
:107E1000284607F057FDB0E70146284602F0E6FD88
:107E20004FF00108B8B22246072106F027F90700F3
:107E30001BD0862F1ED005F053F9024630462B4644
:107E40002349009404F02FFD3946284607F03AFDF7
:107E50000021484605F092FFB8F1000F02D02046FD
:107E600002F0CEFD0AB0BDE8F0870121484605F0DA
:107E700085FFF7E7142217496846FFF7F7FAADF8D0
:107E80000250684601F020FEEFE700006824002061
:107E9000DC2603009C2603008C1B0300436F756CDB
:107EA00064206E6F7420616C6C6F63617465206E0A
:107EB000657720706565725F696420666F722069FE
:107EC0006E636F6D696E6720626F6E642E000000D6
:107ED000A81C0300D00F03002DE9FC4700251788DC
:107EE0000646158090F82D001446894630B13A4672
:107EF0002146484600F0AEFB051E09D1B0784FF090
:107F00000C0A18B32088C846001DB84202D9504652
:107F1000BDE8FC87684679DF0028F9D12088032175
:107F200008F8001020881921401C80B2208008F831
:107F300000102088401C80B2208000EB0801BDF8B2
:107F4000000008F0BCFB218808442080F078022261
:107F5000C8B1218896F9033001F1030C4846BC45AD
:107F6000D5D8425421884FF0010C491C89B2218098
:107F700000F801C02188491C89B2218009F801302C
:107F80002088401C20807068B8B1218890F90030AA
:107F900001F1030C4846BC45B9D8425421880A2255
:107FA000491C89B2218042542188491C89B2218010
:107FB00009F801302088401C2080308950B1CDE97B
:107FC00000474B460622022106F1080008F066FC35
:107FD000051E9DD1308A50B1CDE900474B4607229E
:107FE000032106F1100008F059FC051E90D1308BDA
:107FF00050B1CDE900474B461522142106F1180077
:1080000008F04CFC051E83D1306A30B13B46224655
:10801000494601F006F9051EDBD1706A30B13B46D6
:108020002246494603F094F9051ED2D196F82C0059
:1080300038B13B4622464946304607F07FFD051ED3
:10804000C7D1307838B13B4622464946304603F026
:108050000DFA051EBDD128465AE718B50446002082
:10806000ADF8000013466A46204600F006F80028E6
:1080700002D0BDF80000204418BD70B5E0B1DAB1FF
:10808000002402E0045D2C44A4B2651C8D4206D29B
:108090001688A642F6D8061976789E42F2D18C420E
:1080A0000AD2A31C005D9BB200B1401E0004000C6C
:1080B00002D01C188C4201D9002070BD138070BD05
:1080C00080F8301070472DE9F0410D00044606D0CD
:1080D0002CB195F87A000026012803D006E00E2086
:1080E000BDE8F08195F89800012821D04FF00108F3
:1080F000A6702C2205F17801201DFFF7B7F984F84E
:108100003060D5F8A4006063D5F8A800A0634FF6EE
:10811000FF70A4F8240404F58260C4F82004C4F8B5
:108120002664A4F82A6484F82C64207810B104E052
:108130000720D5E7FF2084F8540004F155072046B6
:10814000C4F81074FFF7D7FBA4F8140404F2144227
:1081500039462846FFF7C0FE0028C1D104F231207D
:10816000C4F818042046FFF7C6FBA4F81C0404F268
:108170001C4205F13C00D4F81814FFF7ADFE0028AE
:10818000AED184F85180208BA4F8480084F83C805C
:10819000266484F85060606900216064454604F1FB
:1081A0003C02781E72DF00289AD1257098E710B53E
:1081B0000288102A1BD0112A20D0262A1DD1007A2D
:1081C0000C46012801D0022817D1A0780521401CB7
:1081D000B0FBF1F201FB1201204600F03AF8002852
:1081E0000BD0A16B002908D0BDE810400847C27B26
:1081F000012A02D18088A1F8240410BD0C46002178
:1082000084F82E148088B4F824148842F5D120799B
:108210000028F2D10121DFE710B5044690F85400A0
:1082200074DF012084F82E04002084F8300484F8E0
:1082300050000621204601F030FE002808D1A17828
:10824000204600F006F810B1A16B01B1884700206C
:1082500010BD2DE9F05F044600780F4698B1A77075
:108260000025C4F82654A4F82A5484F82C54A07984
:10827000012608B1012F09D0E07980B1012F05D086
:10828000022F03D00BE00820BDE8F09F616B21B105
:1082900084F82D640820884701E084F82D5404F206
:1082A000274100200A5C0AB1304603E0401C062842
:1082B000F8D300204FF002084FF0030B012F06D037
:1082C000022F0CD0032F0FD0042F15D110E0A1796D
:1082D00029B194F8241011B908B130460DE0E179C4
:1082E00011B108B1404608E0207A08B1584604E0D0
:1082F000607A08B1042000E02846A070616B41B1AB
:10830000032801D0042804D1607910B194F82E0418
:1083100098B184F82F5404F13C0018210746FFF768
:10832000BEF884F83C6004F12C0006F037F958B12F
:1083300094F82C0084F8510008E084F8305484F854
:108340002F6407208847E6E784F8516094F82400FA
:1083500058B104F1280006F021F920B194F8280062
:1083600084F8520001E084F8526084F85050A278FA
:1083700004F2264104F582694FF0060A052A64D208
:10838000DFE802F07C030F22420084F83160C4F879
:108390002054C4E9101584F83C808020A4F84800DB
:1083A00055E084F8318094F82420384612B1072231
:1083B000027001E080F800B0228A8281C4F8205463
:1083C0004160E168B96042E06069B860208BB881C3
:1083D00094F824003D460028204602D084F83CA0B2
:1083E00001E084F83C6008F025FA50B185F814806B
:1083F0000421204601F051FD38BB052184F83110DD
:1084000021E084F831B01EE0E069B860208CB881CA
:1084100094F824003D460028204602D084F83CA071
:1084200001E084F83C6008F005FA48B185F8148052
:108430000421204601F031FD38B984F831A002E072
:10844000042084F83100C4F82094A07878B13A462A
:1084500004F15400D4F8201472DF00287FF414AF24
:1084600094F8301094F8540073DF0028F6D1616B53
:1084700011B194F831008847002005E784F83150A5
:10848000F5E7000070B5040012D001461C22144824
:10849000FEF7ECFF1248134D0560206850B17ADFFB
:1084A000002806D12068016829604068686005E0FE
:1084B0000E2070BD0B487BDF0028FAD108484FF62C
:1084C000FF711438084A20F8041B0549343901604B
:1084D0000021FFF733FB0028EBD0032070BD000024
:1084E000C42A002020240020CD07030010B5044634
:1084F00000F0A6F8002805D02146BDE8104002484B
:1085000003F0CAB810BD0000F02A002070B515466F
:108510000E46044608F09AF9002809D0054800EBF9
:108520008400C0692A463146BDE8704001F0E2BCD3
:1085300070BD0000E02A002010B5044600F080F86D
:10854000002805D02146BDE81040024803F0A4B839
:1085500010BD0000F82A002010B5044600F070F8A5
:10856000002805D02146BDE81040024803F094B829
:1085700010BD0000F42A002070B50546002400F06C
:108580005FF838B12946044803F086F808B10224A0
:1085900000E00124204670BDEC2A002070B505469D
:1085A000002400F04DF838B12946044803F074F86F
:1085B00008B1022400E00124204670BDE82A002012
:1085C00010B51821034803F042F8182800D0C0B2B3
:1085D00010BD0000E02A002070B505460C46084694
:1085E00008F034F960B1284600F02AF840B1054897
:1085F000294600EB8400BDE870401C3003F04CB805
:10860000002070BDE02A002070B5054616460C46D5
:10861000084608F01BF900280ED0284600F010F894
:10862000002809D00548324600EB84002946BDE801
:1086300070401C3001F02CBC70BD0000E02A00200E
:10864000142801D3002070470146014803F024B8E4
:10865000E42A00207CB5054608880C460930904283
:1086600001D90C207CBD68466DDF0028FAD1218835
:108670000820685420881B21401C80B22080295487
:108680002088401C80B220802844DDF80110016061
:10869000BDF8051081802088801D80B220809DF863
:1086A0000010490800D0012129542088401C208056
:1086B00000207CBD38B501880446212930D012DC69
:1086C0001E481F4A1029A0EB02004FEAD0004FF0CD
:1086D000030202EB00400ED011292AD1BDE8384038
:1086E00018A104F0CDB83B2924D0562921D1808887
:1086F000132176DF0EE017A104F0C2F8072000F086
:10870000F1FA08B1FFF708FA1548A1880180154869
:1087100003F020F900280CD0BDE83840FFF7FCB981
:1087200000200090A08869468FDF002801D0FFF765
:10873000F3F938BD8088132176DFEBE74427030087
:108740009C260300446973636F6E6E656374656491
:108750002E000000436F6E6E65637465642E00002A
:1087600000240020DC25002010B51A4C0188606828
:1087700010290ED011292BD1401E606028D1FFF79F
:10878000C2F8002824D02168002921D0BDE810407B
:108790000847D0B900210122084600F081FA08B14B
:1087A00007280FD107220221012000F079FA08B131
:1087B000072807D104220221002000F071FA20B11D
:1087C000072802D0216801B188476068401C6060BA
:1087D00010BD0000182400202DE9F04701883B4E11
:1087E00040F2F3194FF6FF7510291BD011293ED026
:1087F000122954D0502946D1C188F289841D914252
:1088000041D1618902293ED18688304602F0BCF907
:10881000050038D004F10C0000F0FCF8A8B329469C
:1088200030464EE0C17B8788044601292BD1A846FB
:10883000284602F0A9F9050017D02F8000202872E1
:10884000234843464A460168C5F80A104068C5F8FF
:108850000E0004F1100105F10A0002F059FA6872E5
:10886000F08900280FD129462AE0042013E08088EF
:1088700002F08AF9040006D06068FFF7B1F908B188
:1088800007F004F82580BDE8F087FFE76868FFF788
:10889000A7F90028F7D0BDE8F04706F0F7BF8788B2
:1088A0000646384602F070F90400ECD02B464A46E2
:1088B00006F1080104F10A0002F02AFA607221466A
:1088C0003846BDE8F04700F0F3BC0000C42A0020A1
:1088D000202400202DE9F04F044686880188424874
:1088E00097B0834610290CD0112950D01030192987
:1088F0006AD01A2974D1217A0C09042C4DD3012293
:108900004CE0394D083DA868C0430B9069680BA83E
:1089100002F0E6FE0B990CA800F064FC2C220CA9D6
:108920006846FEF7A3FD0027E946A84610E000BF11
:1089300009EB47005FF00005B0F804A008EB8500E4
:108940005146001D02F068FE6D1C1E2DF6D37F1CE3
:108950000098B842ECD8142E05D317B00420BDE817
:10896000F04FFFF7D9B83146584602F0A0FE314625
:1089700008F1040002F09BFEE07B022830D117B022
:108980003146BDE8F04F1848001D02F090BE17B008
:108990003146BDE8F04F02F03FBE0022314601F003
:1089A00077FA032C01D3012200E000220E48314661
:1089B0000C3001F06DFA022C01D3012200E00022FC
:1089C00009483146083006E0217A002908D1617A49
:1089D000C1F3C002314617B0BDE8F04F01F058BAFC
:1089E00017B0BDE8F08F0000E82A002010B504465B
:1089F0000748007800280AD0204601F0F3FE204600
:108A000007F0F4F82046BDE8104001F091BB10BD1E
:108A100058240020007800F0010070470149085CEC
:108A2000704700007C0E0300084908B5085C009000
:108A3000684603F099FCD0F810050099C84010F082
:108A4000010000D0012080F0010008BD7C0E030071
:108A50002DE9FC410646C0074FF000050ED0104F2F
:108A600000240122385D009500231146019503F092
:108A7000AFFB641C042CF4D300F04EF8B0070DD506
:108A8000074E0024361D0022305D03230095114659
:108A9000019503F09DFB641C042CF4D3BDE8FC811C
:108AA000780E0300094908B5085C0090684603F099
:108AB0005BFCD0F80425009B0121994021EA0203C8
:108AC000C0F808351140C0F80C1508BD780E030039
:108AD0000249085C012103F0B4BC0000780E0300D9
:108AE0000249085C002103F0ACBC0000780E0300D2
:108AF000084908B5085C0090684603F035FCD0F8DA
:108B000004050099C84010F0010000D0012080F059
:108B1000010008BD780E030010B500242046FFF7C1
:108B2000D7FF641C042CF9D310BD10B500242046D7
:108B3000FFF7D6FF641C042CF9D310BD10B5024614
:108B4000064B4FF0FF3000215C5C944201D1084697
:108B500010BD491C0429F7D310BD00007C0E030092
:108B600070B50C4E0C004FF0000530600BD00120AA
:108B700000F06AF808B1022004E0002000F064F878
:108B800000B10B202070706810B9FEF7BCFE0546DE
:108B9000284670BD1824002010B5002000F0DCF934
:108BA00008B1062806D1012000F0D6F908B1062840
:108BB00000D1002010BD00002DE9F0470D46814690
:108BC000FFF7BCFF0446042836D2DFF874801B4848
:108BD0001C4EA8F10C0725B3012D0ED0022D2BD170
:108BE00004EB440030444578002D25D0B9680029B5
:108BF00022D02846BDE8F047084704EB4401755CE5
:108C00000E44717849B10E4A4FF48041093A8068A8
:108C1000FEF7CEFF08B987F80390B17808F8041082
:108C2000E2E78068FEF7DCFF04EB4401314418F80A
:108C300004008D78A842D7D0BDE8F087800E0300ED
:108C400014240020602A0020042801D2FFF7ECBE83
:108C5000002070470146104810B50088042907D04D
:108C600007290ED00A2915D1BDE8104006F0AABF89
:108C7000132176DF0CE000280CD0BDE81040FEF791
:108C80004BBFA0F57F41FF3904D10448FFF7C4FA78
:108C90000828F0D110BD000000240020E8250020A5
:108CA00070B50023042810D20D4D00EB4004012ABA
:108CB00002D101290CD00022094E00EB40003044C3
:108CC00061B1012906D0022906D00723184670BDDC
:108CD0000E30C2B22A55F9E74270F7E78270F5E725
:108CE000602A0020044A014600201279D20702D0EF
:108CF000084600F04DB870470824002070B50646BD
:108D00001E480024C0E90161B00720D500250122DA
:108D100011462846FFF7C4FF6D1C0446042D02D2FD
:108D2000002CF4D013E094B940F2333204211448FB
:108D3000FEF770FE04000AD1FEF75AFE040006D1C9
:108D40000F48104A0021001FFEF7F8FE0446F00706
:108D500012D00120FFF77CFE74B909480A4A0021AD
:108D60000C38FEF7EBFE040006D10548074A012146
:108D70000838FEF7E3FE0446204670BD08240020B4
:108D80008C0E030065900200A5AD0200DF790200A1
:108D90002DE9F05F6E4C054600266078B34618B1A9
:108DA00084F801B001F0E6FF6A4F4FF47A694FF49E
:108DB000C87A4FF00108182D69D2DFE805F00C13CE
:108DC00013384754696E727B727BC58484848484B3
:108DD000B3B6B9BCC5C501F0CDFF3868FEF700FFDA
:108DE00006465CE00020FFF783FE00284FF00000FD
:108DF00008D0FFF76DFE022D02D14FF4E16008E0CC
:108E0000484606E0FFF76CFE022D01D1C82000E0C5
:108E10005046410CC0034FF47A72801841F10001B2
:108E2000257052000023FEF7DDFA01462AE00020FB
:108E3000FFF75EFE00284FF0000004D0FFF748FE69
:108E40004FF44870E5E7FFF74BFEDFE70020FFF740
:108E50004FFE00284FF0000002D0FFF739FECFE7A9
:108E6000FFF73EFED4E70020FFF742FE00284FF058
:108E7000000002D0FFF72CFE01E0FFF731FE257065
:108E800040F6CD4100223868FEF792FE064646E0E5
:108E90000020FFF707FE257008E0002051E0257054
:108EA0003DE084F801800120FFF7FCFD002240F244
:108EB0006661E8E784F801800120FFF7F3FD0022F6
:108EC0004FF40051DFE77868FEF78AFE0646D5F1D9
:108ED000110000D02EB10220FFF7FAFD84F802B095
:108EE0001DE0012816D980B2C8214843C117C90323
:108EF00041EA5041C0034FF47A72801841F10001F9
:108F000052000023FEF76EFA014600227868FEF751
:108F10004FFE06460220FFF7E3FD84F8028030464C
:108F2000BDE8F09F01F026FFB9E701F023FFB4E7A9
:108F300001F020FF04E001F01DFF0020FFF7D0FD4D
:108F40000120FFF7CDFDAAE7FFF7EFFDA7E700003F
:108F500008240020800E0300012107F007BD000057
:108F60002DE9F84F0546861C00208DF8000091463B
:108F70000F464FF0010A6846FEF738FE1B4C04F21C
:108F80001C4860683860D4E90101194F401A3968FB
:108F9000081A0EE00121404602F09CFB02F094F812
:108FA0000146404602F096FBD4E90101401A3968B7
:108FB000081A401C8642EDD8B9F1000F03D00520F5
:108FC00065F3891002E0062065F39F5061683A68F6
:108FD000114004EB8101C8606068304460609DF816
:108FE0000000FEF727FE5046BDE8F88F083300204A
:108FF0005825002070B50D4604460A2902D10D21DE
:10900000FFF7F8FFA0682268411CA1601554D4E95D
:109010000101814204D32046BDE8704002F09DBDAD
:1090200070BD0000044881684068814201D1012080
:10903000704700207047000008330020034630B519
:10904000074800210478426806E000BF02EBC10037
:1090500005789D4203D0491CA142F7DB002030BDBA
:10906000B024002000780221FFF7A6BD1CB50446FD
:1090700001F0DCFC00236A46092105F0C9F8052847
:1090800005D10348012241792046FFF7BDFA1CBDF6
:10909000282400201CB504460020009042F6A6209B
:1090A000ADF8000001208DF80200084801AA6946C9
:1090B000006801902046A0DF002805D10448012265
:1090C00081792046FFF7A0FA1CBD0000AC0E03001A
:1090D0002824002005494FF0FF32082841F82020BD
:1090E00002D3084480F8582070470000542E002016
:1090F000F0B54FF0FF3512B10023082601E0082338
:109100000C260C4C05E000BF54F823707F1C04D0E3
:109110005B1CB342F8D32846F0BD26185DB286F832
:10912000305044F82310002AF5D1E11881F8580096
:10913000F1E70000542E00200249084490F9300065
:1091400070470000542E002070B504464FF6FF759E
:109150000A462846AC4209D14FF480742146104695
:1091600002F075FA80B2A0420BD070BDFF2CFCD883
:109170002146104602F05BFA90F0010F01D0204624
:1091800070BD284670BD000070B5084C050009D0C0
:1091900010342168002907D00868206049682846F3
:1091A0008847F6E70834F4E770BD0000402E002041
:1091B000054A012120B1012805D19170FFF7E4BFD4
:1091C00051700020FAE77047402E002010B5D0E91A
:1091D0000234D1E90220D11AA04101D3012010BDEF
:1091E000002010BD73B58CB00646002000900D988D
:1091F00080B100246D4621460DA802F04DFA30B131
:10920000009805EB400084800098401C0090641C8E
:10921000142CF0D32C2269463046FEF727F90EB005
:1092200070BD2DE9F04117880646B81D14460D465D
:10923000984202D90C20BDE8F08131880722062926
:109240000AD34FF4486C4FF6FF73614501D9994238
:1092500002D17088062801D21046ECE7604501D99A
:109260009842F9D1994203D0984201D08142F3D873
:109270000520E85520881221401C80B22080295406
:109280002088401C80B220804119308807F017FAEE
:109290002188084480B220804119708807F00FFAB5
:1092A0002188084420800020C5E7FEF735BC000077
:1092B00038B54A7A0F4B62B100220A725969002907
:1092C00006D001228DF80020ADF8020068468847DC
:1092D00038BD0A7A62B19B684C680246194620463E
:1092E000FEF766FC0028F3D0BDE8384006F0CEBAA1
:1092F0005B68F1E7C42A0020F0B585B016460F463A
:1093000004461D4614220B496846FEF7AFF80A488A
:109310008DF80870ADF80240ADF80A608DF80C5079
:10932000017800222046FFF76FF9684600F0CCFB79
:1093300005B0F0BDE40F03006824002070B588B0CC
:109340000646002005900690ADF81410ADF81610F2
:109350000190029001AA05A9304690DF050021D0B6
:1093600003F0BEFE0346114811493246401AC108B7
:10937000012000EB014004460E4903F08CFABDF8D1
:10938000042012B9BDF8060028B1BDF80630204609
:1093900009A103F080FABDF808201AB12046164949
:1093A00003F072FA08B0284670BD0000B42603002E
:1093B0009C260300141703005468652072657175BC
:1093C00065737465642054582F5258207061636B24
:1093D0006574206C656E67746820697320746F6FA4
:1093E000206C6F6E672062792025752F2575206FA0
:1093F00063746574732E00006017030070B5044633
:109400000948012102F081F9BFF35F8F0025002890
:1094100008D1204601F0D2FD002803D1BFF35F8FB1
:109420000148056070BD0000342400202DE9FF4193
:109430000C4620B14FF4064004B0BDE8F08120791D
:10944000002748F2096538B141F61D5601281BD0A6
:10945000022826D0681DEFE70220207102970397AB
:10946000E0680190694601A805F0A2FE50B102989B
:109470008188E18000882081BDF80010029805F005
:1094800015FFD9E72846D7E70A4B6A460021A01DF9
:1094900005F046FE38B1074918398F61CF61A842FF
:1094A000CAD13046C8E703488188019805F0FEFE1E
:1094B000F5E700001025002070B500240F4D10E0E6
:1094C000686800EBC406307803F032FF7178012938
:1094D00001D0012100E000214140307800F048FA3D
:1094E000641C28788442EBDBD5E90401084303D0EF
:1094F000BDE8704006F030BF70BD0000B024002011
:1095000010B50021024802F000F980F3100010BDF0
:10951000243700204FF480328A400168C1F8482384
:109520000068C0F8082370474FF4A07202EB810175
:1095300089B200F08DBA2DE9F04105460E464FF490
:10954000A07000EB860081B228684FF48034B440EC
:10955000984622F07F47C0F808432868C0F848437F
:10956000286803F051FB286800EB8600C0F84075BE
:109570002868C0F84443B8F1000F02D02868C0F84A
:109580000443BDE8F0810068D0F80405704700008E
:1095900070B54379234C44F823204279231D03EB13
:1095A000C202224C1579204A121BD4082DB108257D
:1095B000022000EB04401EA130E005680A88C5F8CF
:1095C000082590F904208978002A4FEA411104DB2C
:1095D00002F1E02282F8001405E002F00F0202F12D
:1095E000E02282F8141D90F904100122002909DB01
:1095F00001F01F0502FA05F54909890001F1E02192
:10960000C1F800514179002503EBC1010A7141798C
:1096100043F83100032000EB04400EA103F030F9C1
:10962000284670BDEC240020242703009C2603005C
:1096300052544320696E7374616E636520616C726D
:109640006561647920696E697469616C697A6564C1
:109650002E0000005254433A20696E697469616CAF
:10966000697A65642E00000090F90400002809DB87
:1096700000F01F02012191404009800000F1E0202C
:10968000C0F8001270470A46022100F067B94FF493
:10969000827100F0DDB90068012101607047006847
:1096A0000121416070472DE9F05F07460C464FF4F9
:1096B000A07000EB84001FFA80FA38684FF48036FF
:1096C000A6409B4622F07F45C0F848633868C0F842
:1096D00008633868D0F8048500EB8402D2F840951E
:1096E000C2F840855146386803F08EFAA9EB0800AD
:1096F00020F07F40012806D1102003F05DFD514687
:10970000386803F081FA3868D0F80485C0F84463FB
:10971000A5EB080121F07F413868012900EB8400A6
:1097200010D0C0F840553868D0F804156FF07F4C61
:109730006A1A521E22F07F42ACEB0B03934217D3FE
:1097400062B118E06D1CC0F84055102003F034FDE4
:109750003868D0F8040540450AD10CE000EB8400DD
:109760006D1CC0F840553868D0F80405884202D016
:109770000D20BDE8F09F01223146384600F0EEF89A
:109780000020F6E713460A460021FFF7B5BD0000AA
:109790002DE9F843104D0F4680461E469146694616
:1097A000286801F00DFF040014D01C21FDF777FE9E
:1097B00001202071C4F81490380BC4F80080C4E96B
:1097C00002606946286801F01CFF05F021FC0020BA
:1097D000BDE8F8830420FBE7E010030010B5037830
:1097E0000022072B06D2DFE803F00504061020292B
:1097F00030000A7010BD01230B7003898B818388B0
:10980000CB81C06888600A7410BD02220A70028988
:109810008A818288CA81C2688A60807D062802D0D7
:109820000020087410BD0120FBE703220A70C288E3
:109830008A810289CA81C068886010BD04230B70C8
:10984000C0888881CA818A6010BD0520087010BD5B
:1098500070B5064D0646002455F8241009B130466F
:109860008847641C042CF7D370BD0000E02F002053
:1098700030B50446006887B00D46806800281FD0C8
:1098800018216846FDF70BFE0195A0680590207928
:1098900010B1012810D107E001208DF800002069E7
:1098A0000290E068039005E002208DF80000E06877
:1098B00000030290606904902068816868468847C8
:1098C00007B030BDF0B585B017460C0005463AD05C
:1098D000112C38D0082C36D01C481D49401AC60817
:1098E0000D2C11D0204603F0FBFB0246012000EBBB
:1098F00006402B46174902F0CEFF2A46072168464C
:1099000001F012FE02941BE0022000EB06402A4602
:10991000114902F0B9FF2A460321684601F004FE0E
:1099200027B13878C00701D0012000E002208DF86F
:10993000080000208DF80C0041F20110ADF80A007B
:10994000684600F0CFF805B0F0BD0000E426030043
:109950009C260300741E0300641D03000368C3F803
:109960004413002A02D00068C0F8041370470000B6
:109970002DE9F84F0E463449804601EB5001C007EF
:10998000097801D00F0901E001F00F074FF000093D
:10999000424601204946FDF756FDDFF8B0A00446D7
:1099A0000D46052F4ED2DFE807F003161B282C00CA
:1099B000002E47D00121404606F0B2FB8DF8009002
:1099C0006846FEF713F95046D0E904120C431543DC
:1099D000CAE9044532E00EB1022114E0002112E090
:1099E0004EB10321404606F09BFB4046BDE8F84FD0
:1099F000012106F043BF012105E0002E22D1042100
:109A000001E02EB103214046BDE8F84F06F088BBC7
:109A10000021404606F084FB0021404606F02EFF60
:109A20008DF800906846FEF7E1F85046E243D0E931
:109A300004341A4024EA0501CAE904219DF8000013
:109A4000FEF7F8F8BDE8F88F302F0020B024002092
:109A500010B5006842581AB103F0D6F8012010BDC5
:109A6000002010BD10B50446408800F0DFFFA08044
:109A7000024801682046BDE8104008473024002015
:109A800010B50446808800F01BFF60800248016822
:109A90002046BDE810400847402400202DE9F04151
:109AA00007460024064E074D05E000BF56F8241077
:109AB00038468847641CE8788442F7DBBDE8F081CB
:109AC000F42D00205824002010B50446408800F0F2
:109AD000ADFFA080024801682046BDE8104008475D
:109AE000A40F030001490968084700002010030083
:109AF00070B586B0044614216846FDF7D0FCA089F5
:109B00000125A0F54040ADF8040020782F4E06282E
:109B100033D2DFE800F0320303032C4AA08900F0BF
:109B20009BF930B9E08943F6FE71A0F540408842C8
:109B300023D8A07B8DF80800207803280FD00020C0
:109B40008DF80900A0680390606850B109208DF875
:109B5000000060680490684604F0ACFA0DE0012053
:109B6000EEE708208DF800008DF81050F3E7A0898B
:109B700000F072F908B1E08930B17078002801D0A6
:109B800004F0ECFB06B070BD606830B10B208DF8BE
:109B90000000606802907570DDE70A208DF8000013
:109BA000BDF8040004F07EFCF5E7606848B11420BD
:109BB0008DF80000606802904FF6FF70ADF8040069
:109BC000C9E713208DF80000F6E7000044240020C8
:109BD00038B504460F480078B0B1A4F57F40FF388F
:109BE0000FD0684605F044F988B1052101700121C4
:109BF0000171C480684605F049F905F0FBF90020C1
:109C000038BD48F2036038BD48F2016038BD48F203
:109C1000076038BD182500200D4808B5007888B1C8
:109C2000684605F025F980B106210170684605F007
:109C30002DF90848017809B10121017305F0DAF91D
:109C4000002008BD48F2016008BD48F2076008BD69
:109C500018250020A4300020F0B587B014216846F4
:109C6000FDF71DFC304C207818B16846FFF7F0FD79
:109C700057E0201D01F02BFD98BB40F6F8700168FD
:109C8000481C02D14FF0102041694FF0805002690A
:109C900040694B1C01D100FB02F124480022016104
:109CA000A1F54051C160224902F0ECF8002823D10F
:109CB00021481C238C221F49006801F06EFC03F030
:109CC00085FF050016D0022D14D000270126062D91
:109CD00014D005A805F0CCF898B106700C2D1BD255
:109CE00000E01EE0DFE805F018101810181718172C
:109CF0001812141248F20A6007B0F0BD26706760AF
:109D0000B3E748F20760F7E7077105E0032100E0D9
:109D10000221017100E0067105A805F0B7F805F011
:109D200069F90020E8E7000018250020B42500208C
:109D3000F0100300F02F00205810030038B5040085
:109D400014D0694605F034FAB0B1BDF8000000EB5C
:109D500080010B4800EB8100C16851B1A17A41B18B
:109D6000C168491EC1600020A07238BD48F204607D
:109D700038BD48F2056038BD48F2096038BD0000C2
:109D80007C3000201FB501A9684605F0C9F904B070
:109D900010BD07B513460A466946002005F0C0F914
:109DA0000EBD07B513460A460021684605F0B8F90E
:109DB0000EBD20B119B1006808600020704748F25C
:109DC00004607047F8B50D46040018D0BDB169466F
:109DD00005F0EEF9B0B1BDF800000C4900EB8000D1
:109DE00001EB800001210C30666801F073FC2E60ED
:109DF00060680C3068600120A0720020F8BD48F255
:109E00000460F8BD48F20960F8BD00007C30002015
:109E100018B10323002206F0F5BE48F20460704733
:109E20000223002206F0EEBE094910B50A69042A91
:109E30000AD0084A096942F821000548012110307A
:109E400001F048FC002010BD48F20B6010BD00007E
:109E5000F8240020E02F002043F6FE71A0F54040DA
:109E6000884201D8012070470020704710B5044691
:109E70000078182802D1FEF7A3FB207010BD10B5A2
:109E800004460078182802D1FEF79AFB207010BD16
:109E90000AB101F00CBC01F0BFBB70B50D46044621
:109EA000B0F81414D0F810040122FEF7D6F800B16F
:109EB000057004F13C0204F5826104F1540072DF84
:109EC00070BD000070B5134600220546112900D16F
:109ED0000122074C33B12179FEF796FB002261780D
:109EE000284600E06178BDE87040FEF78DBB0000B9
:109EF00070240020F7B517460E0011D000980025F9
:109F000060B100242146684601F0C6FB18B1A0B23A
:109F10003946B0476D1C641C142CF3D32846FEBD93
:109F20000020FEBD406804F0C3BF000070B510B152
:109F30004FF4064070BD1C4C0025207B08B12573F2
:109F400001E000F0A5F8207808282AD2DFE800F028
:109F50002904080C10291422BDE8704000F026B82E
:109F6000BDE8704000F082B8BDE8704000F064B811
:109F7000BDE8704000F040B80620207060880A49B3
:109F800000EB8000283901EB80004068BDE870409C
:109F900003F0FCBD072020706560BDE8704003F051
:109FA00003BE48F20E6070BDA43000201149F0B429
:109FB0008A1C00200346A1F128050C18A67A4EB190
:109FC000A37200EB800405EB8404E66816B9247CD8
:109FD000012C0AD0401C80B20228EED30B704B80BB
:109FE0004B60F0BC41F61D5070471080F0BC00F093
:109FF0003DB80000A43000200C48418801EB8102EC
:10A00000A0F1280101EB8201CA6852B1052101705B
:10A01000074802218180016800230122054801F0E0
:10A0200095BE042202704968F6E70000A4300020C3
:10A0300020250020B425002038B50A49084803240B
:10A040000B684268898803EB810153880470DB1C2C
:10A0500000201B0400909B0B034801F0CBFF38BD90
:10A06000A430002020250020B4250020074910B589
:10A070004888091D05F0ECF818B1BDE81040FFF75D
:10A08000DBBFBDE81040FFF7B7BF0000A4300020E1
:10A0900070B5194C0121207808281AD2DFE800F0A9
:10A0A0000419191C252929182089134A401C2081CC
:10A0B000002060802073283A00EB800312F82330E0
:10A0C00043B100232518401C80B2AB720228F3D3A1
:10A0D000217070BD0123F5E76068084940888A88CF
:10A0E000C01C10448880022004E000F009F806201B
:10A0F00000E00720207070BDA43000202025002043
:10A100000A4909484988026801EB8103074928394F
:10A1100001EB83014B6803604A6082880A81022256
:10A12000828000200874704720250020A430002081
:10A130002DE9F043064680883288DFF85C8185B0DF
:10A140000746502A37D010DC5449554B06F10A0512
:10A15000A1EB03014FEAD1014FF0020303EB0144ED
:10A16000352A3AD0362A07D168E0522A02D0542A3A
:10A17000F9D102E000F0C6FE82E0142249496846A7
:10A18000FDF774F9ADF80270384600F04FFCADF8F9
:10A19000040000F0C9F90022444698F8041038463B
:10A1A000FEF732FA0022E1783846FEF72DFA6846CB
:10A1B000FFF758FC64E0307B012861D1B07A0128B8
:10A1C0005ED13089A0F52451023959D10121384698
:10A1D00000F0ECFE06F0E2FA52E098F80610FEF706
:10A1E000FBF900284CD0002298F806103846FEF7FC
:10A1F0000BFAF288B2F5857F17D012B120462AA15A
:10A200000BE02A88012A03D0204636A102F03CFB4D
:10A210006A88012A04D0204641A102F035FB04E0FF
:10A22000A98800223846A1DF08B1002125E00122DB
:10A2300098F807103846FEF7E7F921E04FF00009DB
:10A2400098F80710FEF7C8F9D0B1002298F8071067
:10A250003846FEF7D9F9F28812B1204612A104E07F
:10A26000AA88012A04D020462DA102F00DFB03E0AC
:10A27000A87900B1012081464946384605F0B2FF71
:10A280000022364998F80200FEF740F905B0BDE813
:10A29000F04305F04BBB0000282400209C2603005F
:10A2A0009C260300040F0300556E65787065637487
:10A2B000656420474154542073746174757320772A
:10A2C00068696C652067657474696E6720434152E4
:10A2D00020636861722076616C75653A203078255C
:10A2E000780000004D756C7469706C6520282564D9
:10A2F0002920434152206368617261637465726909
:10A30000737469637320666F756E642C207573694E
:10A310006E67207468652066697273742E00000091
:10A32000556E65787065637465642043415220639F
:10A3300068617261637465726973746963207661C0
:10A340006C7565206C656E67746820282564292CFF
:10A350002073746F726520302E000000557D02005E
:10A3600070B504460078002814D1608800F0CAFD5A
:10A370006588284600F09AF928B107480122C1787B
:10A380002846FEF741F96088FEF770FEBDE8704090
:10A3900006F004BA70BD00002824002070B5204CDF
:10A3A00000252570FEF70CF96070FEF709F9A07022
:10A3B000FEF706F9E070FEF703F92071FEF700F9E9
:10A3C0006071FEF7FDF8A071FEF7FAF8E0716278AF
:10A3D0000121182A18D0A278182A15D0E278182A54
:10A3E00012D02279182A0FD06279182A0CD0A279BB
:10A3F000182A09D0182807D004F10C000560BFF313
:10A400005F8F2170002070BD0648074A801AC0087F
:10A4100001EB0040054902F033FA032070BD000053
:10A42000282400209C2603009C260300D41303004C
:10A430007CB504460078082837D1607A58BB207A6A
:10A440001C4E4FF6FF75012811D0072802D00828AE
:10A450002BD121E0A08800F033FA0446A84224D092
:10A46000012100F0A3FD2046FEF700FE1DE0A088BC
:10A470006A46012103F040FD68B90198007850B1A7
:10A48000A08800F01DFAA8420FD00122F178FEF753
:10A49000BBF805F04BFA08E0F068012805D1BFF3DE
:10A4A0005F8F044900200C310860BDE87C4006F055
:10A4B00075B900002824002010B50B48FFF763F899
:10A4C000094A083AD2E90434C018D2E9063244F104
:10A4D0000001C31A71EB020204D24FF0807280189F
:10A4E00041F1000110BD0000D024002010B5C0B221
:10A4F000FEF7A4FD0446007802F01AFF01466078DA
:10A50000012801D0012000E0002090EA010F08D0CE
:10A510000449D1E90401084303D1BDE8104005F026
:10A520001BBF10BDB02400201CB5054AD2E90212A1
:10A53000CDE900120022694603F0A4FE1CBD000014
:10A540001C0F030003484FF6FF7181800121017049
:10A5500000207047382400202DE9FC41804600F09F
:10A5600065FA002403250127A0F57F412646FF391F
:10A5700008D06A46082103F0BFFC18B90198841D71
:10A580008688056832462B4621464046B1DF0428BE
:10A5900004D0082804D00B2808D002E0112000E0E5
:10A5A0000020002F00D10B20BDE8FC810027A80768
:10A5B00001D50125E6E7344303D0002426460325D0
:10A5C000E0E7064806494246401AC008012101EB6F
:10A5D0000040044902F058F9E5E70000A426030012
:10A5E0009C2603009C1603002DE9FC41804600F0E8
:10A5F0001DFAA0F57F410646FF390ED001252A46F7
:10A600006D1C0027ADB26B460821304603F0BEFC3E
:10A61000040006D0072C33D033E043F20200BDE83B
:10A62000FC81019903230A1D0B604046891DB2DF9E
:10A63000040004D00C2C09D0052C09D009E03246C6
:10A640000821104603F01AFD04461AE0012700E035
:10A6500000240821304603F007FD70B102F040FDF0
:10A660000346094809493246401AC008012101EB56
:10A670000040074902F00FF90324002FBFD100E08A
:10A680000C242046CBE70000A42603009C260300F0
:10A690001C16030004488088A0F57F41FF3901D0D3
:10A6A00005F04EB970470000382400200EB502A90D
:10A6B000019100F0BBF96A46012103F01DFC08B1CD
:10A6C00000200EBD019800780EBD00002DE9F0417C
:10A6D00007464FF6FF761048B3DF78B102F000FD71
:10A6E00002460E480E49401AC008012101EB004005
:10A6F0000C4902F0C9F80320BDE8F081064C43F292
:10A700000305A41E324661883846AFDFA842F3D164
:10A710006088401C6080F5E73A240020A4260300EE
:10A720009C260300D0150300428800EB82020C3205
:10A730008A4201D9022070478188A1F57F42FF3A01
:10A7400006D0018821B18068401C01D000207047EC
:10A7500001207047884204D20068401C01D00120CB
:10A760007047002070473EB5027802230C46B3EBD9
:10A77000520F17D1B0F80110ADF80010C1788DF864
:10A7800002108188ADF8041080798DF8060002AAC5
:10A7900001A92046FDF7FAF8032202A96846FCF752
:10A7A00090FE08B100203EBD01203EBD70B50D46B3
:10A7B0000446142810D2FDF743FF68B1084904EBA2
:10A7C000840001EB4000D0F802102960C188A98004
:10A7D000007AA871002070BD43F2020070BD000035
:10A7E0005C2B002070B5018890B0102961D1011D4B
:10A7F0002C226846FCF73AFE9DF804004FF6FF76DF
:10A8000003213446B1EB500F2BD003F0F9FC9DF837
:10A8100004006D4640080ED001280CD0022820D13B
:10A8200018E00D99281D1131FDF740F818B100BF4F
:10A83000BDF82C4015E00CAA0BA9072003F0B4FCCE
:10A840000028EED10DE00D99281D491CFFF78BFF64
:10A850000028EDD10CAA0BA9072003F0A5FC0028C5
:10A86000F1D1BDF80000B44200EB8001124820F89D
:10A87000114000EB41000199C0F80210BDF808102A
:10A88000C1809DF80A10017213D0BDF80000ADF828
:10A890002E000020ADF83040084E8DF82C000BAD96
:10A8A000044600BF56F8241028468847641C022C32
:10A8B000F8D310B070BD00005C2B0020300F0300F7
:10A8C0002DE9F0414FF6FF760546B04213D00B4F0D
:10A8D000002400BF04EB840037F81000A84206D122
:10A8E0002046FDF7ADFE10B12046BDE8F081641CA6
:10A8F000A4B2142CEED33046F7E700005C2B002006
:10A900003EB50C46054603F07BFC0BE0BDF80000AD
:10A91000A04207D02846029900F00EF810B1BDF809
:10A9200000003EBD01AA6946072003F03DFC002857
:10A93000ECD14FF6FF703EBD2DE9F0410C460546C7
:10A9400000F1110701F111061022491C401CFCF70F
:10A95000B8FD48B9681C00F0FDF928B1601C00F092
:10A96000F9F908B1012400E0002431463846FCF72B
:10A970009DFF3B780222B2EB530F0CD00321B1EBC9
:10A98000530F08D03378B2EB530F04D0B1EB530F11
:10A9900001D0012100E00021084201D18C4302D006
:10A9A0000120BDE8F0810020FBE7018811B94218C1
:10A9B00092780AB101207047491C0829F7D300207A
:10A9C000704710B50C460346FFF7EFFF00280AD08A
:10A9D00018882188884205D10822A11C981CFCF700
:10A9E00070FD08B1002010BD012010BD142804D254
:10A9F000024A00EB800022F8101070475C2B002008
:10AA000070B50546FFF75CFF0446284603F078FA68
:10AA1000002808D1142C06D2034B04EB84024FF615
:10AA2000FF7123F8121070BD5C2B002010B5044696
:10AA3000142808D2FDF704FE28B1044904EB840071
:10AA400031F8100010BD4FF6FF7010BD5C2B0020D8
:10AA50003EB5044603F0D4FB0EE001992046463192
:10AA6000FFF7AFFF28B9019920462A31FFF7A9FF68
:10AA700010B1BDF808003EBD6A4602A9072003F0E8
:10AA800093FB0028E9D14FF6FF703EBD10B50A498F
:10AA900041600A4800F01BFE58B902F081FA0749EC
:10AAA0001C238C22087404488C39001F006800F0B5
:10AAB00074FD002010BD0000E410030050310020A0
:10AAC0002DE9F0412D4F002520B17D604FF4064067
:10AAD000BDE8F0810879012258B1294E01280CD037
:10AAE000264C4FF002080834022820D0032841D118
:10AAF00027E00A7103F058F83AE0002000EB8001EB
:10AB000016F82110022908D0401C80B20228F5D383
:10AB10003A707D6041F61D50DAE700EB800006F8E0
:10AB2000205006EB8000406803F030F820E00D7103
:10AB3000A4F80480002301221248216801F006F9DC
:10AB400016E00D71206803F021F80D4923682831C3
:10AB5000498801EB810206EB8201D1F804C0C4F8F8
:10AB600000C04B60A3880B81A4F8048006F8225033
:10AB70000028ADD07D6048F20D60A9E718250020BF
:10AB80007C300020B42500200146034802888A4218
:10AB900000D0002070470000B02A00202DE9FC5FA3
:10ABA0000E008346DDE90C47C6F100009846924648
:10ABB000814600D40846012503E000BF90FBFAF06F
:10ABC0006D1C5045FADAA84500D9454624B1002E3F
:10ABD00001DB780700D5641EB80702D5B8F1000F75
:10ABE0000AD0F80708D13CB1A54205D22021584629
:10ABF000641EFEF7FFF9F6E7002E02DA4E462D211D
:10AC000002E0780703D52B215846FEF7F3F907F049
:10AC1000030002280BD1B8F1000F08D13CB1A542C6
:10AC200005D230215846641EFEF7E4F9F6E7CDE977
:10AC30000047434652463146584605F055FDBDE8AB
:10AC4000FC9F000070B50D46044600684FF4887103
:10AC500002F066FA4FF49071206802F061FA4FF446
:10AC60009271206802F05CFA4FF4A271206802F041
:10AC700057FA4FF4AC71206802F052FA206812497A
:10AC8000C0F804132068690740F30730090E002854
:10AC900004DB00F1E02080F8001405E000F00F0074
:10ACA00000F1E02080F8141D206840F307300028F0
:10ACB00009DB00F01F02012191404009800000F1F2
:10ACC000E020C0F8001170BD1003420002460020D1
:10ACD0001268530713D502F00300012802D002289E
:10ACE0000CD105E0C2F383100B68801C184404E00B
:10ACF0000223086803EB9252104408600120704759
:10AD00000248007A002800D001207047503100200E
:10AD1000F0B58488A518944200D82246A41AC288A7
:10AD2000D6189A4200D81346D21A4B880788BB42DD
:10AD30000CD34088834209D88888A04206D3A84211
:10AD400004D8C888904201D3B04201D90020F0BD98
:10AD50000120F0BD0021425C0AB101207047491C6E
:10AD60001029F8D300207047800701D000207047D9
:10AD7000012070470A4810B5807860B1002401E0D6
:10AD8000022C06D02046FDF7A3FE641C042CF7D34A
:10AD900010BD0324F6E7BDE81040FDF7BDBE00007E
:10ADA0000824002003480179C90702D00078FDF784
:10ADB000EFBF704708240020172101804180002147
:10ADC000017141711B218171C17170472DE9FE4FE5
:10ADD0002E4F984692460D00814601D000260DE088
:10ADE000684600F097FB6A460021484602F0E0FF03
:10ADF0003878009E10B99DF8090098B15246314646
:10AE0000484605F0A5F80446014600224846FFF7EB
:10AE100059F80D2C37D008DCA4B3082C33D00B2CF8
:10AE200009D130E00520BDE8FE8F112C1ED0A4F51D
:10AE30004050023827D0204602F052F9024614480A
:10AE400014494B46401AC008012101EB0040124949
:10AE500001F021FD5FF00305B8F1000F04D0324688
:10AE600021464846FEF72EFD2846DCE72A46F978BB
:10AE70004846FDF7C9FB5246B9784846FDF7C4FB82
:10AE80000025E9E7FFE72546E6E7000070240020FB
:10AE9000E42603009C2603001C1E030070B50E462A
:10AEA0000C49154604460978FDF796FB00280FD09B
:10AEB000204602F023FF00282A463146204603D0D0
:10AEC000BDE8704002F020BFBDE87040FEF75ABCFC
:10AED00070BD00006824002070B5094D0646A978B1
:10AEE000FDF77AFB0446E9783046FDF775FB01462D
:10AEF00022463046BDE870400123FFF767BF0000DF
:10AF000070240020F0B585B005460027142168465E
:10AF1000FCF7C5FAA5F57F40ADF80250FF3825D003
:10AF20002846FFF719FB040022D01B481B49401A92
:10AF3000C6080B2C22D0112C1ED0A4F5405002388C
:10AF40000ED0204602F0CCF80246012000EB06406D
:10AF50002B46134901F09FFC2146284604F09EFC35
:10AF600010483A4681782846FDF74EFB05B0F0BD03
:10AF70000E208DF800000BE00127F1E70F208DF87F
:10AF80000000022000EB06402A46074901F07CFC45
:10AF90006846FEF767FDE3E79C2603009C26030056
:10AFA000A414030028240020F81403000A460249D0
:10AFB0004978FDF729BB0000282400202DE9F04145
:10AFC000002786B080463E46FFF70EFB040022D0E5
:10AFD000112C22D01B481C49401AC508862C1ED0B3
:10AFE000A4F5405002380ED0204602F079F802460F
:10AFF000012000EB0540434614A101F04CFC214622
:10B00000404604F04BFC39464046FFF7CFFF06B000
:10B010003046BDE8F0810126F5E70127F3E7142269
:10B020001A496846FCF722FA0220ADF8028000EBCC
:10B030000540424616A101F027FC6846FEF712FDC6
:10B04000E1E700009C2603009C2603006773636D04
:10B050005F6C6F63616C5F64625F63616368655FAF
:10B0600075706461746528292072657475726E65E7
:10B070006420257320666F7220636F6E6E5F686157
:10B080006E646C653A20256400000000DC0E03004D
:10B09000466C6173682066756C6C2E20436F756C0E
:10B0A00064206E6F742073746F72652064617461C4
:10B0B00020666F7220636F6E6E5F68616E646C6590
:10B0C0003A202564000000002DE9FF4100262448B5
:10B0D00000F0FAFA2248001F074600F0F5FA214C6A
:10B0E0002149A06800900D6800E00098694628405A
:10B0F00004EB80000C30FFF7E9FD0028F5D101AA30
:10B10000009901EA050304EB8303491CDB6842F85C
:10B110002030401C00910228F2D3019800F0030077
:10B1200001280BD0022810D10198032101EB905087
:10B130000099BDF80A6001EB900005E00198BDF8A8
:10B140000A60C0F3831008440090384600F0B9FA52
:10B1500008B10098A06004B03046BDE8F08100005E
:10B16000203700200833002058250020ACB04FF4D1
:10B170008041002001F0F8FB08B1FCF7CDFC01F0A4
:10B1800055FAFCF7E7FC08B1FCF7C6FC6049032060
:10B19000FDF7B4FD08B1FCF7BFFC69460020FDF7E0
:10B1A000DFFC08B1FCF7B8FC9DF8000002287DD058
:10B1B0005FF0000501F0E2FC08B1FCF7ADFC01F026
:10B1C000A3FE08B1FCF7A8FC002469460120009406
:10B1D00001F02AFD08B1FCF79FFC684601F0A4FDD0
:10B1E00008B1FCF799FC9DF808004AA120F00F0077
:10B1F000401C20F0F00010308DF808000C2202A84E
:10B200007CDF08B1FCF788FC00945020ADF800000A
:10B21000A0200194ADF80200ADF804404FF4C870CE
:10B22000ADF8060068467ADF08B1FCF775FC00212E
:10B230003C4800F0D5FA08B1FCF76EFC3A480090A3
:10B2400038486946143000F090FB08B1FCF764FC04
:10B25000364802F027FCAC216846FCF720F90220B2
:10B260008DF8000006208DF803000120ADF84C0099
:10B270002E498DF87C003220891C2290149144F2D2
:10B28000506023902A482990264869462030FCF7D0
:10B290001AFF08B1FCF740FC224801212030FCF7DE
:10B2A0000FFF1C216846FCF7FAF800E02DE04FF490
:10B2B000A030CDE900404FF4F02002901D480590E9
:10B2C00003261D488DF80C600690ADF80E408DF8F1
:10B2D00010406846FDF7D6F808B1FCF71DFC03F0F6
:10B2E00027F916481649401AC00806EB004015A178
:10B2F00001F0C6FA2846FCF721FB00BF01F0A4F9D3
:10B300000028FBD101F04EFCF8E7012552E70000D0
:10B31000558C0200536D6172744375727461696E6D
:10B3200000000000C8250020E9CB02000224002014
:10B33000E1D8020035D90200AB9202004427030095
:10B340009C260300737461727465642E0000000013
:10B3500070B5144682880E4605462088111D0144AA
:10B36000921C994201D8FE2A01D90C2070BD521CB2
:10B3700032542088FF21401C80B220803154208824
:10B38000401C80B220808119288805F098F9218816
:10B39000084480B22080AA8842B1A96841B13044F3
:10B3A000FCF764F82088A98808442080002070BD3C
:10B3B000072070BD2DE9F047C5881E1DB6FBF5F7C7
:10B3C0008946B6FBF5F1044605FB176C4079166813
:10B3D0006843DDF820A0F718001F874200D9C61A7D
:10B3E000166001E02468491E0029FBD1A5EB0C077B
:10B3F0008846B74216D818E004EB0C00001D09EB94
:10B400000803BAF1000F3A4602D00146184600E0A0
:10B410001946FCF72BF82468F61B4FF0000CB844D3
:10B42000B54201D9374600E02F46002EE4D1BDE8F1
:10B43000F087000030B5024651B101F0A9FA0021B1
:10B44000074C08E034F821301568AB4202D1116096
:10B45000002030BD491C8142F4D3052030BD0000DE
:10B4600000000000BFF35F8F00F016B9F8B50F467B
:10B47000017814460546012901D1687830B1208849
:10B48000821C9A4232D8012902D006E00720F8BD7A
:10B4900069780144891C994228D8181A801E86B2FE
:10B4A000ADF800602188B81C084469467DDF00289B
:10B4B000EDD12978022904D06878BDF800209042A7
:10B4C00005D3BDF80000B04201D809200AE00820E9
:10B4D000012905D16978B14202D8ADF8001001E028
:10B4E000ADF80060BDF80010FE2901D90C20F8BDB0
:10B4F0002288491CB9542188491C89B2218078547A
:10B500002088401C2080BDF80010084420800020C6
:10B51000F8BD0000034A00219268C0E90021816063
:10B52000704700007024002070B586B00D460646B6
:10B53000144614216846FBF7B2FF8DF80050ADF8B1
:10B5400002402046FFF772FAADF804001422694663
:10B550003046FBF78BFF06B070BD70B54FF6FF7538
:10B560000E46A84201D1002000E0401C84B208E051
:10B570002146304600F090F808B1204670BD641CAA
:10B58000A4B2FF2CF4D9284670BD10B5FBF78DFE90
:10B5900008B1002010BD112010BD10B531B1B2FBB3
:10B5A000F3F403FB14241CB1092010BD0E2010BDC0
:10B5B00001600021416081608281C381084610BD25
:10B5C00070B50C460546FBF725FE002802D0218801
:10B5D0002868084470BD10B50A8849888A4203D19A
:10B5E000FBF75AFE012010BD002010BD70B50C46BF
:10B5F0000546FBF734FE002802D06188286808441D
:10B6000070BD10B50A8849888A4203D1FBF71EFE37
:10B61000012010BD002010BD01F01F0301229A403F
:10B62000D243490900EB8100114600F059B80A469F
:10B6300001F01F030121994010B552090C4600EB9F
:10B64000820000F05DF8204000D0012010BD2DE9FF
:10B65000F04180460D460024481E012101EB5017A1
:10B6600016E058F82400C04390FAA0F0B0FA80F039
:10B6700020280CD200EB4416AE4208D23146404698
:10B68000FFF7D5FF0028ECD13046BDE8F081641CFF
:10B69000A742E6D82846F8E74A0950F8220001F008
:10B6A0001F0201219140084000D00120704701F0A5
:10B6B0001F0301229A40490900EB8100114600F066
:10B6C00029B8002100F017B8012100F023B80121AA
:10B6D00000F016B808B56A46FBF733FE009808BDBF
:10B6E00008B56A46FBF713FE009808BD08B56A4620
:10B6F000FBF727FE08BD08B56A46FBF708FE08BD44
:10B7000008B56A46FBF7F6FD08BD08B56A46FBF7C3
:10B71000E5FD08BD08B56A46FBF7ECFD009808BDDD
:10B7200008B56A46FBF71AFE009808BD38B504460E
:10B7300000258DF800506846FCF758FA21686268C9
:10B74000086890420ED9401E08600178238AE2689A
:10B7500001FB0325227A2168101AC0B20A798242BD
:10B7600000D208719DF80000FCF764FA284638BD45
:10B7700038B5054600208DF800000C466846FCF7F9
:10B7800035FAE868298A201AB0FBF1F12A681068B6
:10B79000431C136001709DF80000FCF74BFA38BDA4
:10B7A00010B530B1017A42680368891AC9B21A60CB
:10B7B00006E00E2010BD03681A68541C1C6011704E
:10B7C000491EC9B2F7D2006800210171084610BDB8
:10B7D000C20800F007030120895C984008407047C8
:10B7E00010B560B10161172120F8021B20F8021B7F
:10B7F0001B2100F8021BFFF7DFFA002010BD0E200E
:10B8000010BD0000F0B5858893B00C46002D39D1ED
:10B81000018800263F4F24293BD006DC102909D09F
:10B8200011290CD0232958D14FE03A290BD05529A2
:10B8300053D129E00146204602F08AF84DE0A01DD0
:10B84000FFF7BAFA49E02246408934F8061F8142E0
:10B8500000D808466080172800D217206080106941
:10B8600070B1607960B1D7E90001CDE90301ADF8AD
:10B870000E506088ADF81000136903A91046984770
:10B880006671267113B0F0BD0146204602F0B4F88F
:10B8900023E0011D2C2206A8FBF7E8FDBDF81800E7
:10B8A000BDF81C2004EBC0014A732269AAB1D7E994
:10B8B0000423CDE90423ADF81200487B8DF8140071
:10B8C0002269204604A9904707E0017A207B88423C
:10B8D00000D201462846FDF731FDA07A0028D1D0DC
:10B8E000E1882846A5DF012580B11128CAD001F0E2
:10B8F000F7FB02460848094913B0401AC00805EB97
:10B900000040BDE8F04006A100F0BEBFA672E5729F
:10B91000B8E70000380F0300B42603009C2603009C
:10B9200073645F626C655F67617474635F6578639D
:10B9300068616E67655F6D74755F7265717565735B
:10B940007428292072657475726E65642025732EC3
:10B950000000000020B10278DE2A03D008207047E2
:10B960000E20704741800020704760B159B10278C5
:10B97000DE2A0AD009684160DE2101704FF6FF71AE
:10B980004180002070470E207047082070477FB527
:10B99000054600294DD0002D4BD008780C46DE28F6
:10B9A00047D1A8886188884202D1204604F054FF1C
:10B9B0002888012825D002283BD011283AD05128C8
:10B9C00037D135F8040F6188884232D1A978A81C94
:10B9D00002292ED1017A042903D0062901D0052994
:10B9E00027D10021009102228DF8002001914FF40F
:10B9F000C07202910391ADF80420007A05280FD09F
:10BA000010E0297A2046012913D1A9884288914261
:10BA10000FD10121017204B0BDE8704004F01CBFD9
:10BA2000ADF8041028886946B0DF002801D06168AD
:10BA300088477FBDA88861888842FAD14FF6FF7099
:10BA400060807FBD00F180400068002800D00120A8
:10BA5000704708B500F18040002101600068009047
:10BA600008BD000070B50D4C0125207808B1852671
:10BA70000EE00020A06060602061E060084801F0F6
:10BA800073FB064601F08CFA08B901F057FB2570EC
:10BA900001F04CFB00B1A570304670BD402E002077
:10BAA000B191020038B500258DF800506846FCF7CA
:10BAB0009DF8084CE068401EE060E06828B901F09D
:10BAC00035FB10B901F060FBA5709DF80000FCF794
:10BAD000B1F838BD402E0020F0B505460478154871
:10BAE00089B0164640F82420124A08690832A2F1AB
:10BAF0000C0742F82400487F385520226846FBF79F
:10BB0000B5FC04942878385C48B10EB10A4A00E0CC
:10BB100000226946281D01F0C5FD09B0F0BD0EB137
:10BB2000064A00E00022694605F10C0001F084FCA1
:10BB3000F3E700008C2400207D050300C50303000B
:10BB40000FB408B50399002904D004AA00926A46EC
:10BB500000F00FF801B05DF814FB10B582680446E0
:10BB6000002A05D0D4E90403216898470020A0608A
:10BB700010BD2DE9FC4791460C00804676D014F8A4
:10BB8000011B39B125290ED04046FDF733FA207844
:10BB90000028F4D198F80C00002867D04046BDE892
:10BBA000FC47FFF7DABF0020012221782B291BD0A8
:10BBB0002D2902D0302908D102E040F0010001E037
:10BBC00040F00200641C002AEFD100252A290ED083
:10BBD0002178A1F130020A2A11D205EB850201EB8E
:10BBE0004205641C303DF1E740F00400EAE7D9F873
:10BBF00000100B1DC9F800300968641C0D44217841
:10BC000000232E290BD114F8011FA1F130020A2ABA
:10BC100005D203EB830201EB4203303BF3E76C29CF
:10BC20000DD068290BD0692921D00BDC252918D02B
:10BC3000582931D063290ED0642915D117E014F8A2
:10BC4000011FECE7702969D0732932D075291BD008
:10BC5000782909D120E0D9F80000011DC9F80010A9
:10BC600001784046FDF7C6F9641C90E76CE0D9F80E
:10BC700000100A1DC9F800200968CDE900500A2209
:10BC80004046FEF78BFFEFE7D9F800100A1DC9F810
:10BC9000002009680A2206E0D9F800100A1DC9F838
:10BCA000002009681022CDE90050404604F01CFD38
:10BCB000DAE7D9F8001000270A1DC9F800200E683D
:10BCC000C00705D112E04046761C7F1CFDF792F9B3
:10BCD00031780029F7D104E0202140466D1EFDF7A0
:10BCE00089F9BD42C0D9002DF6D1BDE74EB130462D
:10BCF000FBF7E0FB074604E0202140466D1EFDF700
:10BD000079F9BD4206D9002DF6D103E04046761CF4
:10BD1000FDF770F931780029F8D1A5E7D9F80000CE
:10BD2000011DC9F80010056830214046FDF762F991
:10BD300078214046FDF75EF908200021CDE9000199
:10BD4000034610222946B0E7BDE8FC872DE9F843F9
:10BD5000884605002C482D499946A0EB01004FEA82
:10BD6000D0004FF00101164601EB004424D02868B2
:10BD700000282CD0002E34D0696840464FF01007C0
:10BD80000A68511E11EA080F11D101467243284674
:10BD9000FBF7A5FD00282ED028684B4632460469E3
:10BDA00001B041462846A446BDE8F043604720461E
:10BDB000174B18A2009722E00E2000902046144B4B
:10BDC0001EA220A100F06FFD0E20BDE8F883082020
:10BDD000009020460E4B26A21AA100F064FD082018
:10BDE000F3E7092000902046094B24A215A100F09A
:10BDF0005AFD0920E9E7064B214A2046009711A188
:10BE000000F051FD1020E0E72C2703009C260300E2
:10BE1000CB100300616464725F69735F7061676572
:10BE20005F616C69676E656428705F66732C207053
:10BE30006167655F6164647229000000705F66730A
:10BE400000000000257320636865636B20666169EC
:10BE50006C656420696E20257328292077697468D1
:10BE60002076616C756520307825782E0000000002
:10BE7000705F66732D3E705F617069006C656E0067
:10BE8000E01E030038B503001148124D4FF00E04B8
:10BE9000A0EB05004FEAD0004FF0010505EB004094
:10BEA00009D061B119600C6801B0A446BDE830400A
:10BEB000114618466047084B08A2009402E0064B62
:10BEC00008A2009409A100F0EEFC0E2038BD00008D
:10BED0002C2703009C26030080100300705F66730C
:10BEE00000000000705F617069000000257320632E
:10BEF0006865636B206661696C656420696E2025E6
:10BF000073282920776974682076616C7565203004
:10BF10007825782E00000000044801214174007A41
:10BF200008B1002070470120704700005031002008
:10BF3000012801D0032808D10449002201284A74AD
:10BF400000D00020087403F005B87047503100207D
:10BF500070B50246022801D0032A45D1234C207A2D
:10BF6000002841D0012833D0022831D120480023B5
:10BF7000022A006802D0032A2AD11BE0E36001797B
:10BF800011B1012924D10DE0D0E90565711B4FF4F1
:10BF90008056B14200D33146294481614569A942A6
:10BFA0000ED015E00169491C0161426991420FD12F
:10BFB000237213E0E168491CE160082908D9E360B5
:10BFC0002372022A0AD00D21FDF752FC02F066FF0F
:10BFD000607C28B1BDE8704000F0E8BF0021F3E7C5
:10BFE000BDE8704002F0B6BF70BD000050310020C7
:10BFF000282500202DE9F84F90468A463A493B4AC9
:10C000000500A1EB02014FEAD1014FF00102DDF87A
:10C0100028901E464FF00E0002EB01441AD0B8F1F2
:10C02000000F1CD02868002822D00920002E29D01B
:10C0300069684968B6FBF1F201FB1261002926D05C
:10C0400000902B4B20462BA235A100F02CFC0920A0
:10C05000BDE8F88F00902046254B3CA203E00090FD
:10C06000234B20463BA22EA100F01DFC0E20EFE743
:10C070000820009020461E4B38A229A100F013FC96
:10C080000820E5E700902046194B37A2DCE7504630
:10C09000FBF71FFC102798B14046FBF71AFCA0B134
:10C0A000324651462846FBF71AFC98B1CDF800906D
:10C0B000286833464246C46851462846A047C7E729
:10C0C00020460B4B29A2009708E02046084B2DA2E2
:10C0D000009703E0064B204633A2009710A100F022
:10C0E000E2FB1020B4E700002C2703009C2603008D
:10C0F000B810030021286C656E202520705F6673E0
:10C100002D3E705F666C6173685F696E666F2D3E71
:10C1100070726F6772616D5F756E697429000000DF
:10C12000257320636865636B206661696C656420B4
:10C13000696E202573282920776974682076616CE0
:10C14000756520307825782E00000000705F6673DA
:10C1500000000000705F737263000000705F667320
:10C160002D3E705F617069006C656E006164647281
:10C170005F69735F616C69676E65643332286465FB
:10C1800073742900616464725F69735F616C6967CD
:10C190006E65643332282875696E7433325F742992
:10C1A000705F737263290000616464725F69735F1A
:10C1B00077697468696E5F626F756E647328705F0B
:10C1C00066732C20646573742C206C656E290000E6
:10C1D0002DE9FF411C46DDE90A7815460E46684602
:10C1E00000F0C2F846EA450141EA840141EA07222B
:10C1F00042EA0841009A00EB8200C0F80017BDE84F
:10C20000FF812DE9FF411C46DDE90A7815460E46FF
:10C21000684600F0B7F846EA450141EA840141EA80
:10C22000072242EA0841009A00EB8200C0F800179A
:10C23000BDE8FF812DE9FF411C46DDE90A7815467E
:10C240000E46684600F0ACF846EA450141EA840132
:10C2500041EA072242EA0841009A00EB8200C0F856
:10C260000017BDE8FF812DE9FF411C46DDE90A7892
:10C2700015460E46684600F0A1F846EA450141EA37
:10C28000840141EA072242EA0841009A00EB820059
:10C29000C0F80017BDE8FF811CB5002100910B46D6
:10C2A00001220191FFF7C6FF1CBD1CB500210091C2
:10C2B0000B4601220191FFF7D6FF1CBD1CB50022E1
:10C2C0000B46009211460192FFF7B4FF1CBD1CB54E
:10C2D00000220B46009211460192FFF7C4FF1CBDDD
:10C2E0001CB5002100910B46012201911146FFF778
:10C2F000A1FF1CBD1CB5002100910B46012201913C
:10C300001146FFF7B0FF1CBD13B50C46684600F0A0
:10C3100039F8009900EB8101D1F8002722F440326E
:10C32000C1F80027009900EB8100D0F8001741EA1E
:10C330000441C0F800171CBD3CB50A4CD4E90034D8
:10C34000CDE900346B46441808E000BF53F82010D4
:10C35000D1F8205520C2C1F82055401C8442F5D8A0
:10C360003CBD0000241003000168202902D24FF0D8
:10C37000A040704701F01F010160014870470000B4
:10C38000000300500168202902D24FF0A0407047FE
:10C3900001F01F01016001487047000000030050D8
:10C3A0000168202902D24FF0A040704701F01F0120
:10C3B0000160014870470000000300500168202917
:10C3C00002D24FF0A040704701F01F010160014808
:10C3D000704700000003005042094FF0000102D0F6
:10C3E000012A05D102E04FF0FF3101E04FF6FF7165
:10C3F00000F01F00012282400A4201D00120704754
:10C400000020704701B56846FFF7BCFFD0F8100563
:10C410000099C84000F0010008BD01B56846FFF76B
:10C42000BFFF009A01219140C0F8081508BD01B571
:10C430006846FFF7C3FF009A01219140C0F8081534
:10C4400008BD38B501240090684631B1FFF78CFF74
:10C4500000998C40C0F8084538BDFFF785FF00996A
:10C460008C40C0F80C4538BD034908B5084400218C
:10C4700001600068009008BD00600040024940581B
:10C48000012800D0002070470060004030B5154AF8
:10C4900001460020D2F8104423460AE0DB681D79EB
:10C4A000854205D1401C0A28F6DB4FF0FF3030BD35
:10C4B0001B68002BF2D1431CF9D0CB681871D2F85D
:10C4C000103443B1DB68CC681B682360D2F81024B9
:10C4D000D268116030BDC2F81014C96800220A6029
:10C4E00030BD000008330020F0B595B01C4615465D
:10C4F0000F4608461A9E00F01BFB182109A8FAF700
:10C50000CEFF0E96CDE909540023082203A9384630
:10C5100000F023FB05980690BDF81000ADF81C0054
:10C52000BDF81200ADF81E0000208DF82100039820
:10C53000082600F00300012802D0022818D032E0BB
:10C5400003983346850AC0F3C2008DF82000039893
:10C550000FA9C0F38314A200384600F0FEFA09A820
:10C56000009006AB22460FA9284600F03DFA1AE0DB
:10C570000398840DC0F3C2008DF82000082C01D26E
:10C58000254600E0082533462A460FA9384600F024
:10C59000E4FA2E44641B09AB06AA29460FA800F052
:10C5A0008BF9002CEAD1384600F0C8FA15B0F0BD7E
:10C5B0007047012003F024BF084810B50178084AED
:10C5C000515C19B1001D01F007F902E00C3001F0D7
:10C5D00001F8BDE81040002003F012BF3C25002008
:10C5E0008824002008B5034A00924023024AFFF73E
:10C5F0007BFF08BDEDF80200703100200A4A0129D6
:10C6000002EBC00007D0022907D0032907D0042974
:10C6100007D000207047022070470420704700793F
:10C6200070474079704700009C26030010B5FFF763
:10C63000C0FF04210348FFF729FF02490120C96810
:10C64000487110BD8C2603002DE9F04F8DB0FCF72A
:10C65000E9FC18B100200DB0BDE8F08F7E4C4FF022
:10C66000000BC4F818B4BFF34F8F7C49A068029048
:10C670000D68D846284004EB80000BE0D4F818047D
:10C6800070B961680298814201D8A160E2E7284050
:10C6900004EB80000C3002A9FEF718FB0028EDD156
:10C6A000002005AA029901EA050304EB8303491C53
:10C6B000DB6842F82030401C02910228F2D3059832
:10C6C00000F00300022802D001284DD0AAE005980E
:10C6D0005022810D8946B2EB905F00D850210E4662
:10C6E00066F39F50059008315D4800F0D8F90700C7
:10C6F00078D000F01DFA4346082205A9384600F01C
:10C7000034FA029908F1080A2940681A8000001DCD
:10C71000864222D9504D0C3530B1C2B204EB8101B2
:10C72000301A90460C3104E02946F2B200259046BA
:10C730002846C6B25346384600F017FA0AEB0803FB
:10C7400025B132462946384600F00FFA029909F120
:10C75000030001EB900002903BE004EB81015346A3
:10C76000324638460C31EFE70598C0F383100628AF
:10C7700000D30620059960F38911C1F38310801C52
:10C7800005918100364800F08AF907004AD000F090
:10C79000CFF94346082205A9384600F0E6F908F12A
:10C7A000080800260FE00298434600EA0501401CF5
:10C7B00004EB81010290042238460C3100F0D5F9D7
:10C7C00008F10408761C0598C0F38310B042EAD83B
:10C7D00047B1D4F81054D4F8180478B1384600F0B2
:10C7E000ADF934E01EE0E8684079012804D12A68F8
:10C7F0002846394612689047E8680568002DF2D14E
:10C80000384600F09BF98DF800B06846FBF7EEF96A
:10C81000D4F8180408B90298A0609DF80000FBF74E
:10C8200009FA14E0D4F8104405E02168204689682C
:10C830008847E0680468002CF7D10A480A49401A82
:10C84000C008022101EB004008A100F019F8FCF734
:10C85000E9FB80F00100FEE60833002058250020A7
:10C8600064270300442703009C2603004261636B96
:10C87000656E647320666C75736865640000000003
:10C8800000231A4603F064BC08B5012300926A46EF
:10C8900003F05EFC08BD1CB5CDE9002302236A4607
:10C8A00003F056FC1CBD3EB5069C8DE81C0003231E
:10C8B0006A4603F04DFC3EBD2DE9F0470E4680462A
:10C8C0001C469246082940D894F80C90002020730A
:10C8D0001946104602F074FA0025B54206D218F83F
:10C8E00005201BA12046FFF72BF903E01AA12046E3
:10C8F000FFF726F96D1C082DEFD318A12046FFF78E
:10C900001FF90025B54212D218F805707E2F08D8FD
:10C91000FAF7A8FD0068C05D10F03E0F01D03A465E
:10C9200000E02E220EA12046FFF70AF903E00DA138
:10C930002046FFF705F96D1C082DE3D3012221469F
:10C94000504602F01FFA84F80C90BDE8F087000012
:10C950002025303278000000202020007C000000DC
:10C960002563000020000000064910B50020087073
:10C97000054800F0E1F8002803D1044800F036F93A
:10C98000002010BD08330020642703009C12030020
:10C9900002480349401AC00870470000642703009A
:10C9A0009C26030013B56846FEF744FD08B100203D
:10C9B0001CBD0248009950F831001CBD9C260300A4
:10C9C00070B508480125D0F81044057007E0E0680C
:10C9D00045712168204649688847E0680468002C52
:10C9E000F5D170BD083300202DE9FF4781460C9D2D
:10C9F00000200C462F7B2873984616462946184679
:10CA000002F0DEF9072E42D2DFE806F004090F1625
:10CA10001F2A360049462846FFF792F837E0494674
:10CA200028462268FFF78CF831E0D4E90023494614
:10CA30002846FFF785F82AE0A0680090D4E9002393
:10CA400049462846FFF77CF821E0D4E90201CDE908
:10CA50000001D4E9002349462846FFF771F816E0A3
:10CA600004F1080007C88DE80700D4E9002349460F
:10CA70002846FFF765F80AE004F108000FC88DE8C2
:10CA80000F00D4E9002349462846FFF759F8002251
:10CA90002946404602F076F92F73BDE8FF872DE95D
:10CAA000F041058A80462D1F4819C01CB0FBF5F0E7
:10CAB000C6B24046FEF73AFE041E19D0002020718F
:10CAC00001206071E58000272546761EC4F80080AD
:10CAD0000BE04046FEF72AFE60B16179491C6171A6
